:020000040000fa
:080000000002040000000000f2
:020000040000fa
:040008006803000089
:020000040000fa
:04000c006803000085
:020000040000fa
:040010006803000081
:020000040000fa
:04001400680300007d
:020000040000fa
:040018006803000079
:020000040000fa
:04001c006803000075
:020000040000fa
:040020006803000071
:020000040000fa
:04002400680300006d
:020000040000fa
:040028000a030000c7
:020000040000fa
:04002c006803000065
:020000040000fa
:040030006803000061
:020000040000fa
:04003400680300005d
:020000040000fa
:040038006803000059
:020000040000fa
:04003c006803000055
:020000040000fa
:040040006803000051
:020000040000fa
:04004400680300004d
:020000040000fa
:040048006803000049
:020000040000fa
:04004c006803000045
:020000040000fa
:040050006803000041
:020000040000fa
:04005400c8020000de
:020000040000fa
:040058006803000039
:020000040000fa
:04005c006803000035
:020000040000fa
:040060006803000031
:020000040000fa
:04006400680300002d
:020000040000fa
:040068006803000029
:020000040000fa
:04006c005803000035
:020000040000fa
:040070006803000021
:020000040000fa
:04007400680300001d
:020000040000fa
:040078006803000019
:020000040000fa
:04007c006803000015
:020000040000fa
:040080006803000011
:020000040000fa
:04008400680300000d
:020000040000fa
:040088006803000009
:020000040000fa
:04008c006803000005
:020000040000fa
:040090006803000001
:020000040000fa
:0400940068030000fd
:020000040000fa
:0400980068030000f9
:020000040000fa
:04009c0068030000f5
:020000040000fa
:0400a00068030000f1
:020000040000fa
:0400a40068030000ed
:020000040000fa
:0400a80068030000e9
:020000040000fa
:0400ac0068030000e5
:020000040000fa
:0400b00068030000e1
:020000040000fa
:0400b40068030000dd
:020000040000fa
:0400b80068030000d9
:020000040000fa
:0400bc0068030000d5
:020000040000fa
:0400c00068030000d1
:020000040000fa
:0400c40068030000cd
:020000040000fa
:0400c80068030000c9
:020000040000fa
:0400cc0068030000c5
:020000040000fa
:0400d00068030000c1
:020000040000fa
:0400d40068030000bd
:020000040000fa
:0400d80068030000b9
:020000040000fa
:0400dc0068030000b5
:020000040000fa
:0400e00068030000b1
:020000040000fa
:0400e40068030000ad
:020000040000fa
:0400e80068030000a9
:020000040000fa
:0400ec0068030000a5
:020000040000fa
:0400f00068030000a1
:020000040000fa
:0400f400680300009d
:020000040000fa
:0400f8006803000099
:020000040000fa
:0400fc006803000095
:020000040000fa
:040100006803000090
:020000040000fa
:04010400680300008c
:020000040000fa
:040108006803000088
:020000040000fa
:04010c006803000084
:020000040000fa
:040110006803000080
:020000040000fa
:04011400680300007c
:020000040000fa
:040118006803000078
:020000040000fa
:04011c006803000074
:020000040000fa
:040120006803000070
:020000040000fa
:04012400680300006c
:020000040000fa
:040128006803000068
:020000040000fa
:04012c0000030000cc
:020000040000fa
:040130006803000060
:020000040000fa
:04013400680300005c
:020000040000fa
:040138006803000058
:020000040000fa
:04013c006803000054
:020000040000fa
:040140006803000050
:020000040000fa
:04014400680300004c
:020000040000fa
:040148006803000048
:020000040000fa
:040208006803000087
:020000040000fa
:04020c006803000083
:020000040000fa
:04021000680300007f
:020000040000fa
:04021400680300007b
:020000040000fa
:040218006803000077
:020000040000fa
:04021c006803000073
:020000040000fa
:04022000680300006f
:020000040000fa
:04022400680300006b
:020000040000fa
:040228000a030000c5
:020000040000fa
:04022c006803000063
:020000040000fa
:04023000680300005f
:020000040000fa
:04023400680300005b
:020000040000fa
:040238006803000057
:020000040000fa
:04023c006803000053
:020000040000fa
:04024000680300004f
:020000040000fa
:04024400680300004b
:020000040000fa
:040248006803000047
:020000040000fa
:04024c006803000043
:020000040000fa
:04025000680300003f
:020000040000fa
:04025400c8020000dc
:020000040000fa
:040258006803000037
:020000040000fa
:04025c006803000033
:020000040000fa
:04026000680300002f
:020000040000fa
:04026400680300002b
:020000040000fa
:040268006803000027
:020000040000fa
:04026c005803000033
:020000040000fa
:04027000680300001f
:020000040000fa
:04027400680300001b
:020000040000fa
:040278006803000017
:020000040000fa
:04027c006803000013
:020000040000fa
:04028000680300000f
:020000040000fa
:04028400680300000b
:020000040000fa
:040288006803000007
:020000040000fa
:04028c006803000003
:020000040000fa
:0402900068030000ff
:020000040000fa
:0402940068030000fb
:020000040000fa
:0402980068030000f7
:020000040000fa
:04029c0068030000f3
:020000040000fa
:0402a00068030000ef
:020000040000fa
:0402a40068030000eb
:020000040000fa
:0402a80068030000e7
:020000040000fa
:0402ac0068030000e3
:020000040000fa
:0402b00068030000df
:020000040000fa
:0402b40068030000db
:020000040000fa
:0402b80068030000d7
:020000040000fa
:0402bc0068030000d3
:020000040000fa
:0402c00068030000cf
:020000040000fa
:0402c40068030000cb
:020000040000fa
:0402c80068030000c7
:020000040000fa
:0402cc0068030000c3
:020000040000fa
:0402d00068030000bf
:020000040000fa
:0402d40068030000bb
:020000040000fa
:0402d80068030000b7
:020000040000fa
:0402dc0068030000b3
:020000040000fa
:0402e00068030000af
:020000040000fa
:0402e40068030000ab
:020000040000fa
:0402e80068030000a7
:020000040000fa
:0402ec0068030000a3
:020000040000fa
:0402f000680300009f
:020000040000fa
:0402f400680300009b
:020000040000fa
:0402f8006803000097
:020000040000fa
:0402fc006803000093
:020000040000fa
:04030000680300008e
:020000040000fa
:04030400680300008a
:020000040000fa
:040308006803000086
:020000040000fa
:04030c006803000082
:020000040000fa
:04031000680300007e
:020000040000fa
:04031400680300007a
:020000040000fa
:040318006803000076
:020000040000fa
:04031c006803000072
:020000040000fa
:04032000680300006e
:020000040000fa
:04032400680300006a
:020000040000fa
:040328006803000066
:020000040000fa
:04032c0000030000ca
:020000040000fa
:04033000680300005e
:020000040000fa
:04033400680300005a
:020000040000fa
:040338006803000056
:020000040000fa
:04033c006803000052
:020000040000fa
:04034000680300004e
:020000040000fa
:04034400680300004a
:020000040000fa
:040348006803000046
:020000040000fa
:100400008f8a20000e7f22000e018800000000006d
:10041000000020000000e000020032000001200087
:100420002002880014000700ab0007000000e00075
:1004300003003a00401222000100200002003700b1
:100440000000200001002000810f70000100320038
:1004500014000700000020000000e000020032004d
:1004600000000200000000005a1f0200000000000f
:100470000040da000000fe004440a900601a20009d
:100480000000e0000300320000002000a00188000e
:100490004440a800000006008a1f78008b1f7800e7
:1004a0000000060091018800800478000000eb0045
:1004b0001a003700e284440032a0b4009905ba0063
:1004c000e284440032a0b4009906ba00e2844400f9
:1004d00032a0b4000006eb00476fde00fd07b2005b
:1004e000636ce10003003a00ebff07000000eb0043
:1004f0000a003700606ce10004003a00005deb0088
:100500008b05e900fdff3e00040037006168e10053
:10051000010032000086eb000b00070019c7ba008b
:100520001905ba000e04e00003003a000a00e000da
:10053000e0ff3a0000000600fe07b2009e018800be
:100540008a047800f5ff3700395dba008b05e900b1
:100550000c003200295dba008b05e900080032006a
:100560000c00e00003003a00e284440032a0b40032
:10057000f5ff370019ddba008b05e900faff3a00f4
:100580008904e800e184440032a0b40000000600c1
:10059000809fbe00821f78000000fa008560a900dd
:1005a000ccc2a90010118000610060000000e000d2
:1005b0000f003200004280003111800001417800bc
:1005c000a184200082707800004280000001e800d1
:1005d000d0cc2c000010b8004608de000105200039
:1005e0000180b9000000780000005100004288003e
:1005f0000080fa004f0178004f00be000040060066
:100600000000fa008c20a9002222a9000080fa0034
:10061000004006003600f800809fbe00829fbe00aa
:10062000849fbe00869fbe003400f80000002000ba
:10063000a00188000000fa009400a90044c8bf008f
:100640000080fb000000e9004f00de000040780061
:1006500044e8b700ccc2a80000a026008101200019
:10066000810f0700ccc2a90044c8bf000004e0000d
:10067000020032009f0e070003003700604b290084
:10068000930b0700ea0e07009400a8008400a9005d
:100690000080fa003400f9004f03be004f02be0094
:1006a0004f01be004f00be003600f90000400600ba
:1006b000801f78000000fa0010c0b30038e8b700cf
:1006c0008620a9000080fa004f0078000040060054
:1006d0000040da000000fe000000050014002000c9
:1006e0008a0337000001be001e0007000470a70047
:1006f00003f0a10003f8a30013003a006509b1005c
:1007000010003200090035006928e10002003500c0
:100710000100280000000500000040008180480022
:100720008502e900fcff3a0000000600f88f420055
:10073000050035008100d1000080d3008502e8006b
:10074000fcff3a00000006008000eb0000000500fe
:100750004f89de0082017800870337006011b800fe
:1007600095033700c70ade00f107b200f50fb200ab
:1007700008003200e1cf4200020032000170a00008
:1007800024000500810f70000100320004080500fc
:1007900044000500810f700002003a0014000500bb
:1007a0008502e9000000400081c04800fcff3b00da
:1007b0000170a0002400050007f8270007836100ee
:1007c0000638e10004003a00f70720008783610043
:1007d0008703710001003a0003f0a200889fbe0069
:1007e0008a9fbe008c9fbe00470ade000480a100e5
:1007f000c71ade000580a1000700280007856000f9
:1008000087856100f70f20000720e1009e0032007d
:100810000728e1009c003200010678000400e00097
:10082000b4003200f7072000878060000170a0004c
:100830000500e000c0003200f7072000878161005a
:100840000370a000050652000f003a000b50e100b3
:100850000b0032000308e10002003a000200e10050
:100860007e003200020450008384580004003100ee
:100870000001fd008101fd008402fd008a05fd00ec
:100880006044b800210037000520e10005003d006c
:100890000001fd008101fd008402fd008a05fd00cc
:1008a000050652007a60e100050035000170a100e4
:1008b0004722dd00848070008a807000630037006a
:1008c0006044b800ef02660007ff2f0007066600cd
:1008d0000500e00006003400f08312008714dd00fc
:1008e0000511de00071bdd00060171008519de0021
:1008f0007060e1000500350009047800820478008a
:10090000030178008001eb00700656000b50e100f7
:1009100003003a00020040008380480004003700d2
:1009200060041400e0841c0002005800838058001a
:100930000188a300060032008100d1000080d300ae
:100940008984d3000884d3000402e800270037001c
:100950000178a30025003a000100e0000300320006
:100960008186cf00698656000a0037008c0020007f
:100970000000e00004003a000900780088047800d4
:100980000004eb00700252008086cf000d06460086
:100990000c06e9007060e100060035008000780078
:1009a00009007800880478000004eb007006560007
:1009b000700252000c00e0000c0034008c08dd00d6
:1009c000f00316000703de00868070000c00dd00d7
:1009d000074bde00060070008c4cdd000743de0094
:1009e000868474000c44dd000c0252006120e1009a
:1009f0002000350061016000070028008781640045
:100a0000f7ff270087836400070374000300e000fa
:100a10000600320082037300040032000000e80088
:100a2000e08048000188a3000e003a00f70f200084
:100a30000720e1004a003d000170a1004722dd00cf
:100a4000810072008a8070000000be004f06be0068
:100a50004f05be004f04be00000006006000b80055
:100a6000faff37008100d1000080d3000402e800c3
:100a7000eeff37000401780089017400a10107002e
:100a80008a807000f1ff3700f70107000702780045
:100a90000001fd008101fd00f301070087027800dd
:100aa000850372000778a300040032000001fd00f6
:100ab0008101fd0006020700e4ff370085036200a4
:100ac0000768a300080032000b50e1000300320069
:100ad000f0ff2f00f1ff2700dcff37000001fd00d1
:100ae0008101fd00d9ff37000468a300d7ff320061
:100af000faff3700f8ff2700888360000b003a00f8
:100b00000000e00009003a00830364008283730060
:100b1000020032000200be00ccff37000b50e100a3
:100b2000ceff3a000200be00c8ff370014002000cc
:100b3000810064003eff3700f8ff270088836100d2
:100b400004003a000200e00002003a008c00780045
:100b5000beff3700150020008301640039ff370015
:100b600001f827000000200081007500b7ff370062
:100b7000889fbe008a9fbe008c9fbe001b00200085
:100b80000202be0005866800060028000606660010
:100b90004709de00f20fb200820032000243e80093
:100ba00080003200c729de00f30fb2007d00320062
:100bb0000343e8007b003200f107b2000170a0009f
:100bc000f507b2000570a000c708dd004903de008c
:100bd000868070004700dd00c72add004923de0063
:100be000868272004722dd00030551000403500095
:100bf00085835800030031000000400081804800d8
:100c00000a05e9008c1f78008a9fbe00040050008e
:100c1000858058000402420085824a00000040009e
:100c2000818048000005eb000004be006033b8007e
:100c30000406be000d48e100560031001100090015
:100c40004dccd8000c01b8000d02b80084814100e1
:100c500060824a008283530003045c0084845c0049
:100c600060055d000a00e00025003a00800578007c
:100c70000d40e1004900310088007800070078004d
:100c8000110009004d88d8000c01b8000d02b80011
:100c90008481410060824a006003110083835b000d
:100ca00004045c00e0845c000900e00021003a00dc
:100cb0004f01be000300e0002b003200e3016000a2
:100cc000070673008c81710001003200640070001f
:100cd0004200de004e5edd000c007000c258de00f7
:100ce00001e0a00083010700cf017800818071003e
:100cf0004f06be004f05be004f04be0000000600b8
:100d00008c8343000d044c00e0844c0060054d00d2
:100d10000000e9000a00e000d4ff32008c834300a9
:100d20000d044c00e0844c0060054d000000e9001b
:100d3000ceff37000c0343008d834b0060044c0052
:100d4000e0844c000000e9000900e000d8ff320018
:100d50000c0343008d834b0060044c00e0844c0086
:100d60000000e900d2ff37004200de004e5edd00e9
:100d70000c007000c258de0001e0a000cf01780036
:100d80000300e000daff320060001000e08018008d
:100d9000d7ff3700f0ff2f00aaff3700f0ff2f002a
:100da000b9ff37000404be002f0107008706780052
:100db0000004fd008104fd002b010700078366008d
:100dc0000678a300030032000960a7000800be00f7
:100dd0002c0037000d78a300020032000800be008e
:100de000280037000778a30026003a0001f0a10090
:100df00009f0a1000668a30003003200f1ff2700fc
:100e0000f0ff2f00baff37000d68a3000300320087
:100e10000800be008c807000b5ff37000768a30093
:100e200007003a000648a30003003200f1ff270044
:100e3000f0ff2f00aeff37000d48a3000300320083
:100e40006000b8008c807000a9ff37000748a3003d
:100e50000400320001f82700000020008c807000a0
:100e6000a3ff3700760107000004fd008104fd00a8
:100e700002057800720107000802be008a017800ae
:100e800059ff37000160a000120220004242880092
:100e900097ff37000100e000120032000500e0007b
:100ea00010003200889fbe008a9fbe008c9fbe004b
:100eb0000006eb0001f8a300030032006000100000
:100ec000e08018000cf0a00005f8a3000300320039
:100ed00060021200e0821a000cf0a2008005eb0014
:100ee00041ff37006000b80002000500038368007e
:100ef0000700280007036300470ade000480a10002
:100f0000c71ade000580a100f70f20000720e100ce
:100f1000420032000728e10040003200889fbe00f6
:100f20008a9fbe008c1f7800f107b200f307b20061
:100f30000400e000640032000170a0000500e00041
:100f4000680032000370a00085054200eb07b10085
:100f50000204b8000302b8008484440060854a009b
:100f6000020ab800848444000a854a00030ab800d3
:100f700004054500040033000804d0008984d20031
:100f80000a85d2008b05e9006158e1003d0035007b
:100f9000021020000901610003082000898161001e
:100fa000f70720008783640008867300c84cde00c2
:100fb000c853dd00878474004855de000300e0005c
:100fc0000600320082037600040032008904e80043
:100fd00060054d000a88a3000c003a00f70f2000be
:100fe0000758e10044003d000a70a100c75ddd0024
:100ff0000a8575008a007300090078004f067800a2
:101000004f05be004f04be00000006000a05d100d7
:101010008984d3008b05e800f0ff3700881f780033
:101020000604780090000700070278000001fd0028
:101030008101fd008c0007008702780085037200a3
:101040000778a300050032000001fd008101fd00ca
:101050009f0007004f04780000000600850372001f
:101060000748a30003003200f0ff2f00f1ff270024
:10107000f8ff37000000200001f82700888070008a
:10108000f4ff3700880178004848dd008081710056
:101090004848de00c850dd0001007000c850de0086
:1010a000060478000b0178001600070088807000a5
:1010b000d2ff37000500e0000500320017002000d5
:1010c0003a0007009dff370081037000f9ff3a00e6
:1010d000860078004f0678004f05be004f04be0022
:1010e0000000050083037100f9ff32002700200093
:1010f0002e00070094ff370001f82700868070005b
:10110000f4ff37000100e000260032006101110009
:101110007810e10023003c006022b8007010e1006c
:101120000400350080027800010078008000eb00a8
:10113000700151000200e00009003400700311004a
:10114000062add00822ade008603dd008782720027
:101150000200de00860bdd00070070008208de0062
:1011600084817100f4ff2700048262008481710091
:1011700004002800848262006102600005f0a6007d
:101180000000060004827100070032000000e80041
:10119000e0804800000006000002be006000b800c9
:1011a000efff37006000b80000000600889fbe0017
:1011b0000004eb006138e10016003a000100e00095
:1011c00008003a00c800de004800dd00880020006a
:1011d0000100e00003003a00c800de004800dd0026
:1011e000680444008184cf00e98454000600340080
:1011f0008908dd00f08314008703de00878070001b
:101200000900dd0009044400610214004f04be001f
:10121000000006000300e00008003a00c811de00ec
:101220004811dd00880020000300e00003003a00c0
:10123000c811de004811dd00680444008384cf003b
:10124000e9845400060034008919dd00f08314009d
:101250008713de00878171000911dd000904440055
:10126000e1021400e9ff37002700200001f0a70089
:1012700017002000470bde00f60fb200040032001a
:101280000643e8000a0032004702b30000000600ef
:1012900001037800f607b2000603700002003a006e
:1012a0000703b300000006008702b3000000060039
:1012b00001037800f607b200060370000200320056
:1012c0000770a000000006000760a00000000600f4
:1012d0000478a300040032000578a3000300320064
:1012e0000168a30001003a000200be000160a000f6
:1012f0000000060081017000270032008002eb0030
:1013000001f8a3000300320060001000e080180024
:1013100015002000f40720000202420020003400e3
:10132000f703200087036000060420000003630029
:1013300002082000000161004700de00c909dd004d
:1013400000807100c708de000600e00008003200df
:1013500087037100060032001000b0000180b00069
:101360000188a30002003200c108de000402e80088
:10137000f107b200f30f20000320e10003003d005d
:101380004722dd00810072002900370001f82700a4
:101390000000eb00260037006000b80000000600e7
:1013a000680212007f20e100020034006000b800f3
:1013b0001f0037006011b8007020e1000400350004
:1013c00080017800010078008000eb00700252007c
:1013d0000400e00009003400f00312000719dd00ea
:1013e0008419de000703dd00868171000400de0041
:1013f000070bdd00060070008408de00f7ff270001
:1014000083836300870371000600280003036300e1
:10141000070032000700e00003003a0061016000ad
:1014200002817300020032001000b0000180b000a1
:101430000500a6000000060001f0a0000000060064
:101440004f0ade004709de00f107b200f20fb200da
:101450000b003200f207b1000170a000c708dd00e8
:10146000c901de00838070004700dd000400a60093
:101470000000060060001000e08018000000060078
:10148000810f700001003a00000006008182cf0049
:101490000500e00010003e008082cf00ee82420096
:1014a0007028e1000400390007003e008000780049
:1014b0000000eb000e003700708312008600de0093
:1014c0000500dd000a003700708352008600dd0051
:1014d0000000eb0006003700e28252008508dd00c4
:1014e000708312000603de00868070000500dd00b8
:1014f0007507b0000501ea000400a6000000060020
:1015000060001000e080180000000600889fbe0008
:101510008a9fbe00841f78007c0007004f0078007f
:1015200011003300f0ff2f00838f6c0006003b009a
:10153000040565000a00a7000800370009f0a600ae
:101540001000200008003700820f5400838f5c00d9
:10155000030039001000200001003e0000002000c0
:1015600009f0a7000000ea004f05be004f04be00ce
:101570000000e00000000600881f780003047800e7
:101580000300e00007003d0060001000e08018004c
:1015900060011900e081190002003b0001f02d00fc
:1015a000030037000400070008f0a70001f0a000c6
:1015b0004f04780000000600889fbe008a9fbe008e
:1015c0000082700004027100048271002600320063
:1015d0000004be000200be006011b8006b092000cc
:1015e000950220000182cf000a0039000541b100b8
:1015f0000082cf00070039000541b1000982cf0009
:10160000040039000541b1000882cf000100390013
:101610000541b10005425200120032000a003b00b1
:1016200082817100610164008100d1000080d300db
:101630008984d3000884d3008b05e8000442e800c5
:10164000f7ff3a00070037000804440089844c0083
:1016500000004800818048008b05e9000442e90051
:10166000f9ff3a00030007004f05be004f04be001b
:101670000000060081002000618055000b003d0045
:101680000b00200061fe2f000100e1001d0034006e
:1016900082817100610164008904d1000884d30053
:1016a0000000e800faff3a007100200061006400c9
:1016b0000300700002006000090032006104440071
:1016c000e0844c000988a500050032008b05e80085
:1016d0006808e10002003a008904d1000884d300c0
:1016e000f20f20000258e10005003d00c75ddd005b
:1016f000f907b20089807500080078000000060034
:101700000bf827008b007800000005000004be00e5
:1017100014fc07000003be000405be000200be006a
:1017200010fc0700844f750000000600889fbe0073
:101730008a9fbe008c9fbe000004be0004002000f3
:1017400005f827008583600004037800840f5300a8
:10175000858f5b0007003a000801be000800be004c
:10176000e2fd07000001be000800be001bfc0700f0
:1017700010003700e00f5000e08f58000f003c00d1
:101780008101780003f0a10000017800e00f510012
:10179000e08f59006a0032001002200020458800c6
:1017a0000801be000800be0003fc07000001be00e7
:1017b000effc07000004be0061003700478cde002c
:1017c000cf8cde00e00f5400e08f5c000f003a0089
:1017d0006044b800040037000000400081804800e9
:1017e00061044400e0844c0004002000050820004f
:1017f0008181620004017800e00f5100e08f590000
:10180000f5ff320061041400e0841c00f807b10009
:101810000980b10081017800f307b200000178006f
:101820000200be000170a0000808a3000200320000
:1018300000004000818048008984d1000884d300e2
:101840000000400081804800940120000200200038
:10185000031020006055b8006066b8000c0341001a
:101860008d834900800f5300818f5b0006003c0090
:101870000606410087864900060050008780580010
:101880000a0541008b854900000040008180480026
:101890008301d1000281d3000402e900efff3a0086
:1018a000e00f5000e08f58001b0032000226240099
:1018b00023da20000000200001f82300befb07000f
:1018c0000200200003f82300510307000000e0009d
:1018d000110035000226240023da20000000200039
:1018e00001f82300bdfb07000200200003f82300dd
:1018f000470307000000e0000300340062054500d4
:10190000e0854d00040037006000b800610065000c
:101910000005450081854d00c744dd00080020001a
:101920000000200001f023000804400089844800e2
:101930008b85d1000a85d3000804450089844d00b9
:101940000800be004f06be004f05be004f04be009b
:1019500000000600881f78000104780088007800e5
:1019600005000700904f1400010032000000eb005a
:101970004f04780000000600881f780000047800fb
:101980008180fb000a003a0008007800310007005f
:1019900000004400220037001804e000200032005c
:1019a0000804e8001081fb00810f51001c00320088
:1019b000080078000808a300f7ff3a001410200080
:1019c000048ab9000801780038007800f5ef2f008c
:1019d000808242008081ea0083826200030828003e
:1019e0008382620007003a0000006a00f5ef2f00d2
:1019f000808242000080ea00008062008301600073
:101a0000f0ff3200020078001204e000040032000f
:101a10000201e8009081fb00818f5100f9ff3a003c
:101a20004f04780000000600810178000002780071
:101a300030417800b14f510002003a000204e0004a
:101a4000f9ff3a009480fb001380fb0000805000f7
:101a50000000060080007800040037003104e00038
:101a600002003a0000005100000006000101780069
:101a70000108a300f9ff3a008101780031017800e4
:101a8000f4ef2f00020242000281ea00020162002c
:101a90000408280004016100f7ff32008300780089
:101aa000010178003104e000fdff3a000000510020
:101ab00000000600881f7800000478000800780005
:101ac000d3010700080078004f04780000000600ea
:101ad000114290000482fb009180fb00c808dd00e9
:101ae0000482700080007800d181fb001081fb002f
:101af0004811dd0003017100030037004811dd00cb
:101b00001180fb0002017000010078003104e00048
:101b100004003200840f5100f8ff3a000000e90091
:101b20000000060000000500114390008683fb00c2
:101b3000060020001181fb008001eb00c811dd00d0
:101b40000200200002037300838373002141900090
:101b50004811dd008001eb000203730083837300f2
:101b60008080e800104190008281fb00020020008c
:101b70001082fb008002eb00c822dd000400200080
:101b800004017100858171001182fb004822dd0093
:101b90008002eb00040171008581710008003700ac
:101ba0001182fb008002eb0004027100858271004b
:101bb0004829dd00c821de00830171004821dd00d5
:101bc000010078003104e00005003200860f51006a
:101bd000878f5900f2ff3a000080e90000000600fc
:101be00000000500314190000281fb008001eb0004
:101bf0001183fb008003eb00c833dd0006002000ea
:101c00000603710087837100114190008281fb00ff
:101c100002002000020373008383730021419000bf
:101c20004811dd008001eb00020373008383730021
:101c3000e30040001182fb008002eb001081fb00fa
:101c40008001eb00c811dd000200200002017200db
:101c500083817200104290008482fb000400200007
:101c60000401710085817100204290004822dd004e
:101c70008002eb0006003700481add00c812de00c3
:101c8000850272004812dd001181fb008001eb002b
:101c90000201720083817200010078003104e000cb
:101ca00005003200860f5100878f5900f2ff3a007d
:101cb0006300500000000600000005002802fa0042
:101cc000889fbe008a9fbe008c9fbe0000047800e3
:101cd000810578000f000900001feb000e02b10023
:101ce0000b017800880078008004eb000d003700bd
:101cf0000080fb00c401de00838141000302470035
:101d0000ef026000160020008532dd00ee817900d0
:101d1000038a7200868444000000400000004700ef
:101d200009109800324078000004e00005003a00f5
:101d30001a0020000a0078000001eb008081eb000f
:101d4000190037003104e000e9ff3a00a200370033
:101d500003824500e44278006bc2780084cf5200d1
:101d600005003a008a0f50000c0032000000e80025
:101d7000820078000b00370084cf5200020036004a
:101d800003855000060037008200e80082017800d9
:101d90001a0020000a0078000200370000057800d1
:101da000100020000101780082004000898f50005f
:101db000e7ff390011002000010078000002eb006d
:101dc0008086eb00160037008d8245006543780061
:101dd000eb427900854f530005003a00810f500017
:101de0000c0032000000e800040178000b0037000e
:101df000854f5300020031008d005100060037006e
:101e00000401e80084067800110020000100780039
:101e100002003700800078001000200002027800e5
:101e200004014000890f5100e7ff39000d01e8006f
:101e30000300e800800f5100020036000105780021
:101e400001003700830678000d02e8008a80450013
:101e5000040178000b00780034179a00de000700b8
:101e60003e1292000000e000080032000905e9007f
:101e70000d0555008d0f5500010031000d0578004e
:101e80000a05e8008002eb00010037008a82540056
:101e9000880178000006eb0008805100890f50008f
:101ea0001600310009037800f603b300060178003c
:101eb0008000eb000300780003179a0034179a00a3
:101ec00015179a0026179a00930007008e119200aa
:101ed0003e1292009e1292002e1392000000e0002b
:101ee0000500320088005000898f50003a00390008
:101ef000800178000100370086814100890044009c
:101f000071f897000080fb006f016000170020004f
:101f1000823bdd004401de00020141006e037900d6
:101f2000068163000d003200000040000000470001
:101f300000109000008054000a0032000500e0000c
:101f4000150032000c00e000130032008a0f500030
:101f5000110031000a8054000f003700010478009e
:101f6000ccff37000c007800840f560003003100ce
:101f700004007800010037000000e800eb40780022
:101f80000104e000060032006841780082cf500072
:101f9000f9ff32000d00500000044400bdff37007f
:101fa0000d0078008000e8008c8f5000080036009b
:101fb0006b417800e84078000000e900814f510053
:101fc000f8ff32000a04440005067800b2ff37002b
:101fd00008007800010037000000eb004f06be004b
:101fe0004f05be004f04be000080fa00000006004e
:101ff000881f780001047800984078000104e00010
:10200000260032008100fb0052fe07000000e000c5
:1020100022003200984090000104e0001f003200ce
:10202000904090000104e0001b003200a8409000a6
:102030000104e00003003a0088007800a4fe0700d5
:1020400016003700a04090000104e00012003200aa
:10205000b84090000104e00003003a0088007800d6
:10206000b1fe07000d003700b04090000104e00011
:1020700009003200c84090000104e00003003a006b
:1020800088007800d7fe0700040037008800780039
:102090000aff0700010037000000eb004f04780042
:1020a00000000600889fbe000004be000800e0009b
:1020b00003003a00384580000800e00013003200b9
:1020c0000800be00bb000700000444001804e00044
:1020d00004003a000000eb0030458800000478005e
:1020e0000a0037000800be007e0007000000440020
:1020f000304588001004e000020032000058eb0078
:10210000010037000000eb0030458800080078002f
:102110004f04be00000006008180fb000100370074
:102120000201e900800178000008a30006003200e7
:102130000200e000230032003082fb00810f5200d9
:10214000f7ff3a00030037000000eb000200e00058
:102150001e0032001380fb00810f50001c00320073
:1021600014102000048ab9008402780001003700ae
:102170000281e90003007800e10f51000a003600f7
:1021800033826a00f6ef2f00040343000482ea0062
:10219000040263000608280006026200f4ff320011
:1021a000010037000201e900800178000200e00030
:1021b000050032003082fb00810f5200f9ff3a0027
:1021c00003003700000005000000eb0000000600df
:1021d0000300780000000600010037000201e9005a
:1021e0000200e0000500320030427800b141780082
:1021f000834f5200f9ff3200010037000000050054
:102200000480fb008381fb000300500000000600f7
:10221000881f7800810178000002780080826800c1
:102220000508a30002003200210037000201e90086
:1022300003007800040478000308a30007003200bc
:102240000200e00021003200b3407800015a78001b
:102250000104e000f5ff3a00020037000200e00050
:102260001a0032001004e00003003a0017003700a3
:10227000031c78000281e90080007800e10f510022
:1022800008003600b0017800f5ef2f00838242008d
:102290000382ea0004826200050828000502620049
:1022a000f3ff320008007800010037000201e90066
:1022b000000478000200e00004003200b141780020
:1022c000035878000304e000f8ff3a008000eb00b8
:1022d000080078006a000700080078004f047800c2
:1022e000000006002000fa00889fbe000004be0027
:1022f000994078000104e00003003200194090008a
:102300000004e00004003a008100fb0008007800af
:1023100099fd070023003700020220008000eb0037
:102320000e00780056000700194078000004e00015
:1023300002003a00880078000c0037008904e800a9
:102340000080fb00c400de006f006000120020006f
:102350000010dd00818040006e8178000000710077
:1023600000b77800f0ff3a00f2ff37000100780074
:10237000114178000204e0000a0032008100e80008
:102380000281fb00ef016100140020000322dd0048
:102390004411de0002014100ee01790003016200f8
:1023a000f2ff3200080050004f04be000080fa0027
:1023b000000006002000fa000f000900001feb00db
:1023c0000e02b100914178000001eb000304e0002f
:1023d00028003200114190000204e00005003a009c
:1023e0008000780001017800b1cf1100fdff3200bc
:1023f0001f003700114178000204e00002003a009b
:10240000800078000c0037008100e8000281fb00aa
:10241000c411de006f016100140020000221dd0004
:10242000838141006e8279000201720002b7790057
:10243000f0ff3a00f2ff3700010178009141780087
:102440000304e0000a0032008100e8008381fb0001
:102450006f82610015002000842add00c419de00af
:10246000838141006e82790084816200f2ff3a002c
:1024700000015100020078000080fa000000060010
:10248000889fbe008a9fbe00800478000200e000a2
:102490005b00320001407800814c7800828144006a
:1024a000f1f99f00e20f5100550036009144980069
:1024b000a1449800e1f99f00d1f99f00e60f510077
:1024c0004f003600b1449800c1f99f00e80f510059
:1024d0004b0036000905ea00630565000a844400e4
:1024e0000a055100c1ff2f00010565000080fb00b7
:1024f0008000eb001210200013102000460007009f
:10250000008cbe000a01440060b99f0071b99f00b1
:10251000e80f55003a003600200498003104980076
:10252000400498005104980020b99f0031b99f00e1
:1025300040b99f0051b99f00f80f55003000360098
:102540006004980071049800000c9800110c980029
:10255000200c9800310c9800400c9800510c980009
:1025600020b19f0031b19f0040b19f0051b19f0049
:1025700060b19f0071b19f0000b99f0011b99f0029
:102580006401640078014100020444000205550022
:102590006011b8000203be000002be000403be00ca
:1025a0006022b80000007200818072000201730096
:1025b0008381730010003700009cbe000294be00af
:1025c0004004980051049800620498007304980035
:1025d000000c9800110c9800220c9800330c980005
:1025e000400c9800510c9800620c9800730c9800f5
:1025f0000a02b1000802b000ff0f5500eeff3e00d6
:10260000090078004f05be004f04be000000060020
:10261000f4ff2f00bdfb3700020ab900001bb90010
:102620000200b80081004200810043000000060063
:020000040000fa
:10263000415400000d0a000000410000542b00002e
:1026400052530000540d00000a00000041540000e5
:102650002b430000574d00004f440000453d000053
:10266000310d00000a000000415400002b4300001f
:10267000574c0000415000000d0a000000410000ce
:10268000542b0000435700004a410000503d000019
:102690002265000074660000626c00002e6e00006f
:1026a00065740000222c0000222200000d0a0000a8
:1026b00000410000542b000043490000504d000031
:1026c000555800003d3000000d0a00000041000098
:1026d000542b0000434900005053000054410000b7
:1026e000525400003d2200005443000050220000dc
:1026f0002c220000313000002e390000392e00005d
:1027000031330000312e000032320000332200004d
:102710002c38000030380000340d00000a000000a2
:10272000415400002b430000495000005345000075
:102730004e4400003d3300000d0a0000004100003f
:10274000542b00004349000046530000520d000086
:102750000a000000410d00000a000000420d0000c8
:102760000a000000440d00000a000000430d0000b4
:102770000a000000450d00000a000000460d0000a0
:102780000a000000480d00000a000000470d00008c
:102790000a000000610d00000a000000620d000048
:1027a0000a000000640d00000a000000630d000034
:1027b0000a000000650d00000a000000660d000020
:1027c0000a000000680d00000a000000670d00000c
:1027d0000a0000004b0d00000a000000230d00005d
:1027e0000a0000005245000044000000475200006b
:1027f000454500004e000000424c000055450000d9
:1028000000590000454c00004c4f000057000000ec
:10281000504900004e4b0000004f000052410000a4
:102820004e47000045000000424c000041430000bc
:102830004b000000574800004954000045000000cc
:1028400047520000454500004e000000424c000089
:1028500055450000005200004544000000590000aa
:10286000454c00004c4f0000570000004f52000044
:10287000414e00004745000000500000494e000056
:102880004b000000424c0000414300004b000000a0
:102890005748000049540000450000004e4f00001a
:1028a00000000000209400006700000064000000a9
:1028b0003c000000269400000200000028000000f8
:1028c000640000002b940000690000003f0000003d
:1028d0005a0000002f940000190000001e000000a4
:1028e0001400000036940000640000003400000072
:1028f000220000003d940000180000002d000000a0
:102900004600000042940000640000004b000000fc
:1029100040000000489400001e000000320000004b
:10292000640000004e940000c0000000960000000b
:10293000d20000004e4e0000000000005353000083
:1029400053000000530d00000a0000004545000040
:1029500045000000520d00000a0000005245000032
:1029600044000000520d00000a000000530d00005a
:0c2970000a000000520d00000a000000e8
:020000040000fa
:10297c000000fa00e800070000c2b30020010700c5
:10298c000040eb001e0107000040eb001c0107009b
:10299c0080c0b3001a010700c4000700000a200021
:1029ac0001002000ad0607000080fa0000000600c0
:1029bc000c00fa00889fbe00000f780011079800e9
:1029cc002207980033079800440798005507980091
:1029dc003e0090001e001000cf80de0059f707006b
:1029ec000001be003ef907000004be009e009000ee
:1029fc004e00900000805000cf80de0051f70700a1
:102a0c000001be0036f907000001be000800be0040
:102a1c006ff707000004be00ae0090005e0090004f
:102a2c0000805000cf80de0046f707000001be009a
:102a3c002bf907000001be000800be0064f7070078
:102a4c0037fb07004f04be000080fa0000000600b0
:102a5c001200fa00881f7800600798007107980030
:102a6c00020f980080b22600e1e62400008fbe0021
:102a7c00a0492900200798006000b8004007980082
:102a8c00510798000000eb00300798003600370023
:102a9c003e0090004300dd00e60040002045290088
:102aac000080400010007800800278003e0090000a
:102abc004300dd00e4004000204529000080400078
:102acc0010007800000278003e0090004300dd000a
:102adc008080e8002045290000804000100078002c
:102aec00800178000e08900010007800000178003a
:102afc007e00900010007800800078006e0090003e
:102b0c0010007800aaff07004007980051079800b2
:102b1c0018c0b3001e01be004e009000de009000f5
:102b2c00ebf607000000e000010035000044eb006c
:102b3c000804e000090032004e019000de01900014
:102b4c00028fbe003e009000c300dd00204529002e
:102b5c000080400090017800230798003e00900010
:102b6c000000e800300798003e009000e80f50008d
:102b7c00c7ff340000a026008101200037060700a3
:102b8c002e0090004f0478000080fa000000060030
:102b9c000600fa004047980070002000000f7800f3
:102bac00100037004e4090008080fb001e00780023
:102bbc000088de0061006000004078000004e00046
:102bcc000200320000cfb3000100370000ccb3008c
:102bdc00204798002e4090000080fb005004070016
:102bec001e0fe9001e0078000000e000edff3d0024
:102bfc000080fa00000006000200fa0007e2a900bb
:102c0c00000a20000100200014060700c922a900b8
:102c1c00c902a900cd22a8000000eb00000f78002b
:102c2c0009003700cd02a80000052000010020009b
:102c3c000a060700cd02a9000005200001002000b3
:102c4c00060607001e0fe8001e007800e80f500073
:102c5c00f4ff3400c922a900c902a900cd22a900a1
:102c6c000005200001002000fc050700cd02a80093
:102c7c000005200001002000f8050700cd22a80067
:102c8c000005200001002000f4050700c922a8005f
:102c9c00c902a80007e2a800000a200001002000d9
:102cac00ee0507000080fa00000006000200fa00a2
:102cbc003868ef000642a80000712200000f78006f
:102ccc000000000038c8bf000004e00004003a0017
:102cdc001e0fe9001e0078000000e000f9ff3c0028
:102cec001e0078000000e00009003a00ccc2a800e9
:102cfc0000a0260081012000d8050700ccc2a90045
:102d0c0000a0260081012000d4050700f7ff370042
:102d1c000080fa00000006000200fa003868ef009c
:102d2c000602a80000712200000f780000000000cd
:102d3c0038c8bf000004e00004003a001e0fe90090
:102d4c001e0078000000e000f9ff3c001e00780037
:102d5c000000e00009003a00ccc2a80000a0260048
:102d6c0081012000bd050700ccc2a90000a02600ef
:102d7c0081012000b9050700f7ff37000080fa0039
:102d8c00000006000200fa003110800000fe2f0047
:102d9c0000806000301088003868ef000662a800e0
:102dac0000712200000f78000000000038c8bf003e
:102dbc000004e00004003a001e0fe9001e00780039
:102dcc000000e000f9ff3c001e0078000000e0006d
:102ddc0009003a00ccc2a80000a026008101200006
:102dec009e050700ccc2a90000a02600810120008e
:102dfc009a050700f7ff37000080fa000000060074
:102e0c000400fa00204798003868ef002e4090002c
:102e1c000080fb001010880000712200000f780069
:102e2c000000000038c8bf000004e00004003a00b5
:102e3c001e0fe9001e0078000000e000f9ff3c00c6
:102e4c001e0078000000e00009003a00ccc2a80087
:102e5c0000a026008101200080050700ccc2a9003b
:102e6c0000a02600810120007c050700f7ff370039
:102e7c000080fa00000006000600fa002007980007
:102e8c00c0ff070001108000010f780006a2a90006
:102e9c000682a80000000000301080007000600066
:102eac000000e000fcff3a00b6ff070001108000b4
:102ebc001107980006a2a8000682a80000000000d6
:102ecc0030108000700060000000e000fcff3a0051
:102edc001e0090004800dd009e0070002e00900047
:102eec00010878000080fa00000006000400fa00d7
:102efc00004f78001107980087ff070000c2b3004d
:102f0c00bfff07001e407800bdff070082ff0700cf
:102f1c0010c2b300baff07001e009000d6ff0700d6
:102f2c0062ff0700000a2000010020004b0507008b
:102f3c000080fa00000006000400fa00004f780040
:102f4c00114798002247980041e2a9000064200034
:102f5c00010020004105070041e2a8001e4090003e
:102f6c000bff07001e40780009ff07002e40900061
:102f7c0007ff070041e2a9000064200001002000c7
:102f8c003605070041e2a8000080fa0000000600a8
:102f9c000000fa0018ff0700006420000100200068
:102fac002e05070007e2a9008620a9009620a8009c
:102fbc0061058000f0f82f00808060000006200082
:102fcc000100700060058800d009200020108800e6
:102fdc0007e2a800000a2000010020001f050700de
:102fec0063fe07000080fa00000006001a00fa00d9
:102ffc00889fbe000000eb00000f78000000eb0083
:10300c00100798000000eb00200798000000eb0070
:10301c00300798001c0037003228ef003428ef00ee
:10302c003628ef002183200050c0b300afff07000b
:10303c004183200060c0b300acff07006183200017
:10304c0070c0b300a9ff0700904180001e0f400024
:10305c00a04180009e009000008040001007980066
:10306c00b0418000ae009000008040002007980026
:10307c0000402d0001032000f80407003e009000e2
:10308c000000e800300798003e009000e90f500067
:10309c00e1ff34009e007800d0cc2c000008b80072
:1030ac004308de00400798009e009000d0cc2c0016
:1030bc000008b8004308de0050079800ae009000ee
:1030cc00d0cc2c000008b8004308de006007980044
:1030dc00700047008000780040c0b30083ff0700f9
:1030ec0000402d0001032000dc04070072004700a3
:1030fc008000780080c0b3007cff070000402d00ea
:10310c0001032000d50407008e0890001e089000d3
:10311c0000805000700798004e0090008000eb007b
:10312c008bf507000004be007e0090008000eb00d1
:10313c0087f507000001be000800be0089f60700f5
:10314c0002002000a347240065f7070062f5070082
:10315c0000007800200f98005e0090008000eb00cb
:10316c007bf507000004be007e0090008000eb00a1
:10317c0077f507000001be000800be0079f60700d5
:10318c0002002000a347240055f7070052f5070062
:10319c0000007800300f98006e0090008000eb006b
:1031ac006bf507000004be007e0090008000eb0071
:1031bc0067f507000001be000800be0069f60700b5
:1031cc0002002000a347240045f7070042f5070042
:1031dc0000007800400f98002e089000d041880025
:1031ec004e089000f04188003e089000e0418800b5
:1031fc0078014700f60047007400470014fe0700f2
:10320c004f04be000080fa00000006000000fa0027
:10321c00a00407005eff070000f42100010020005d
:10322c008e04070000c1eb0080c0eb0000c0eb0077
:10323c0041ff07000080fa00000006000200fa00bf
:10324c00000f78000b003700000000001111800007
:10325c0000202000008060000000e000fbff3a002e
:10326c001e007800104078000000fb002011880040
:10327c001e0fe8001e007800104078000004e000eb
:10328c00f1ff3a0000202100a10720007304070081
:10329c000080fa00000006000200fa00004f7800df
:1032ac000000000011118000002020000080600050
:1032bc000000e000fbff3a001e00fb00201188001c
:1032cc000080fa00000006000200fa00000f7800ef
:1032dc00040037001e007800104078001e0fe80034
:1032ec00edff07001e007800104078000004e0009d
:1032fc00f8ff3a000080fa00000006000200fa0015
:10330c00004f780000000000911180000020200088
:10331c00008060000000e000fbff3a001e00fb0094
:10332c00201188000080fa00000006000200fa005c
:10333c00000f7800040037001e0078001040780061
:10334c001e0fe800edff07001e007800104078000b
:10335c000004e000f8ff3a000080fa0000000600cc
:10336c000200fa000000eb00000f780005003700a7
:10337c00a08420001e0040008040eb000148780033
:10338c001e0fe800f00420009e007800808f500093
:10339c00f7ff34004028ef004228ef000080fa00cd
:1033ac00000006000000fa002062a80020022000a5
:1033bc004011880021e2a8002342a8003062a80036
:1033cc0020022000c011880031e2a8003342a8007e
:1033dc0041058000f0ff280080806000000026007e
:1033ec0001007000400588008560a9009560a80068
:1033fc000080fa00000006000000fa00d8ff070069
:10340c00004080008dff070000402200410f20008b
:10341c0012040700d2ff07001040800087ff07004e
:10342c0000402200410f20000c040700ccff0700d5
:10343c002040800081ff070000402200410f200047
:10344c0006040700c6ff0700404080007bff070012
:10345c0000402200410f200000040700c0ff0700bd
:10346c005040800075ff070000c02600c12d2000d1
:10347c00fa030700baff0700804080006fff0700c7
:10348c0000402200410f2000f4030700b4ff0700a6
:10349c006040800069ff070000802400811e20002e
:1034ac00ee030700aeff0700a03e290063ff0700f4
:1034bc0000402200410f2000e80307000080fa00c2
:1034cc00000006000200fa00000f78006040800047
:1034dc005aff070000802a0011062000df030700b6
:1034ec007040800055ff070000a0260081012000dd
:1034fc00da0307001e00780050ff070000a026002a
:10350c0081012000d50307000080fa0000000600ae
:10351c000e00fa00889fbe000f0478000103200003
:10352c00a084200008f90700200798001103200050
:10353c00a084200004f90700300798002e009000aa
:10354c000000e0004e0032003e0090000000e00061
:10355c004b003200be0090002e009000808f500077
:10356c00470036000f007800800478002e00900091
:10357c006300400020079800be0090002e009000d1
:10358c0000805000400798004e0090000000e800ba
:10359c00800078008100e900510798000000e800e5
:1035ac000000e8000000d100800040000f0078000f
:1035bc00818747000000e8000000d10000004000b7
:1035cc00600798006e0090004e019000ae009000d5
:1035dc0035f90700ee0090004e009000008040008e
:1035ec008040eb00014878000040eb00004f780071
:1035fc006e009000e13e2900a7fa07001007980022
:10360c0010003700ccc2a8001e00900010407800bb
:10361c000004e000060032001e80fb009e009000bb
:10362c0011417800a1892000827078001e4fe800bb
:10363c00ccc2a900e13e29000000eb0096fa07007d
:10364c00100798001e0090000000e00003003200fc
:10365c001e407800e74f5000eaff36001e4078000d
:10366c00e74f500004003e001e80fb00a1892000a3
:10367c000041eb008270780039ff07008907780061
:10368c00880778004f04be000080fa000000060096
:10369c000200fa00000f780044c8bf00e14f500050
:1036ac00bb003200213f29001e007800dbf8070028
:1036bc000000e00012003a00a08920009040780041
:1036cc0010c4b30080cf500004003a00ce020700b3
:1036dc00904080007bff0700ae003700a0892000df
:1036ec009040780010c6b30080cf5000a9003a007b
:1036fc00be0207001041800072ff0700a5003700d2
:10370c00613f29001e007800c4f807000000e000ab
:10371c0012003a00b08920009040780030c4b30009
:10372c0080cf500004003a00b7020700c040800070
:10373c0064ff070097003700b089200090407800a4
:10374c0030c6b30080cf500092003a00a7020700a9
:10375c00404180005bff07008e003700c13f29000d
:10376c001e007800adf807000000e00012003a00df
:10377c00c08920009040780020c4b30080cf500056
:10378c0004003a00a0020700a04080004dff070093
:10379c0080003700c08920009040780020c6b3001c
:1037ac0080cf50007b003a0090020700204180003f
:1037bc0044ff070077003700114029001e007800f5
:1037cc0096f807000000e00012003a00d0892000b3
:1037dc009040780040c4b30080cf500004003a0001
:1037ec0089020700b040800036ff070069003700ef
:1037fc00d08920009040780040c6b30080cf5000a4
:10380c0064003a0079020700304180002dff070068
:10381c0060003700814029001e0078007ff8070007
:10382c000000e00012003a00e0892000904078008f
:10383c0050c4b30080cf500004003a00720207005d
:10384c00d04080001fff070052003700e0892000a5
:10385c009040780050c6b30080cf50004d003a0025
:10386c00620207005041800016ff07004900370034
:10387c00d14029001e00780068f807000000e00025
:10388c0012003a00f08920009040780060c4b30028
:10389c0080cf500004003a005b020700e04080003b
:1038ac0008ff07003b003700f089200090407800ab
:1038bc0060c6b30080cf500036003a004b020700c0
:1038cc0060418000fffe07003200370041412900b3
:1038dc001e00780051f807000000e00012003a00ca
:1038ec00008a20009040780070c4b30080cf500054
:1038fc0004003a004402070000418000f1fe07007a
:10390c0024003700008a20009040780070c6b30075
:10391c0080cf50001f003a00340207008041800025
:10392c00e8fe07001b003700a14129001e007800ab
:10393c003af807000000e00012003a00108a20005c
:10394c009040780080c4b30080cf500004003a004f
:10395c002d020700f0408000dafe07000d00370052
:10396c00108a20009040780080c6b30080cf5000b1
:10397c0008003a001d02070070418000d1fe0700cc
:10398c0004003700a03e2900cefe070001003700de
:10399c00000000000080fa00000006000600fa009b
:1039ac000040eb00004f78000040eb0010479800ff
:1039bc000000eb00100798003a003700a1842000ab
:1039cc001e00900000804000904078004147980015
:1039dc00ce40900000c3b30080cf500005003a00e9
:1039ec0010c0b300104798000040eb00004f780067
:1039fc0029003700ce40900010c3b30080cf500098
:103a0c00330032001e4090000004e000220032001f
:103a1c00ce40900030c2b30080cf50001e00320068
:103a2c004e409000ed4f50001b0032004e40900075
:103a3c00ea4f5000180032001e407800e74f50004b
:103a4c0015003e00ce40900000c4b30080cf500063
:103a5c0004003400ce40900080c4b30080cf5000ee
:103a6c0008003400ce40900000c6b30080cf500058
:103a7c0009003400ce40900080c6b30080cf5000c7
:103a8c0005003c001e80fb00a18920004e419000e7
:103a9c00827078001e4fe8001e0090000000e800c5
:103aac00100798009e009000f0042000808f5000ba
:103abc0008003e00a18420001e0090000080400001
:103acc00104078000004e000bcff3a000100370011
:103adc00000000001e407800e74f500004003e003c
:103aec001e80fb00a18920000041eb008270780051
:103afc001bfe07000080fa00000006000000fa0020
:103b0c00b0132000101288004302a90042c2a80082
:103b1c004322a9001000200020128800c0002800b9
:103b2c00001288000080fa00000006000400fa0071
:103b3c00000f7800110798000000000000128000b0
:103b4c00620060000000e000fcff3a001e007800fc
:103b5c00104078000080fb0040128800000000003c
:103b6c000112800000022000008060000000e000d4
:103b7c00fbff3a0040128000804078001e0090004d
:103b8c00014878000080fa00000006001800fa00d6
:103b9c00100f9800210f9800320f98000000eb00d6
:103bac00000f78000000eb00100798000000eb00fd
:103bbc00700798000000eb00000f98001000200028
:103bcc00600798001e0890000000e00005003a0015
:103bdc000000eb0050079800700047002007980089
:103bec0004003700ee009000510798009e089000ea
:103bfc00210798003e0890000000e00005003a0004
:103c0c000000eb00400798006e004700300798005a
:103c1c0005003700ee00900041079800be089000a8
:103c2c003107980000000000001280006200600064
:103c3c000000e000fcff3a001d003700001280007d
:103c4c00620060000000e00009003a002e009000c5
:103c5c00104078000080fb0040128800ae009000fd
:103c6c005e00900000804000200798001e0fe800c6
:103c7c000112800000022000008060000000e000c3
:103c8c000b003a0040128000804078003e0090000b
:103c9c0001487800be0090004e009000008040006b
:103cac00300798001e0090000000e80010079800f4
:103cbc002e0890009e007800808f5000dfff3900a6
:103ccc00100037000112800000022000008060000c
:103cdc000000e0000b003a004012800080407800a9
:103cec003e00900001487800be0090004e0090000d
:103cfc0000804000300798001e0090000000e80093
:103d0c00100798009e0090002e089000808f5000a5
:103d1c00ecff39001e0078000080fa00000006005d
:103d2c000400fa00204798000e80e8008e0078000e
:103d3c007eff07001e4078000080fa00000006009d
:103d4c000600fa00000f780011079800220798006f
:103d5c002e0190009e0090001e0078008bff070043
:103d6c000080fa00000006000000fa00001280003b
:103d7c000080fa00000006000000fa0060168000c7
:103d8c004600de006140600000c0ea006140600057
:103d9c000080fb00610060004600dd0061168000c1
:103dac000160a10001007000601688000080fa001c
:103dbc00000006000000fa00ccc2a8000080fa0047
:103dcc00000006000000fa00ccc2a9000080fa0036
:103ddc00000006000000fa00e1492900a084200040
:103dec0080f807000000e000030032004468ef0098
:103dfc00204a2900b3fd0700614a2900a084200055
:103e0c0078f807000000e0001d00320010c0b3007d
:103e1c0044e8b700a04a2900aafd0700b200070039
:103e2c00a089200011c4b30001487800b08920009b
:103e3c0031c6b30001487800c089200021c6b30008
:103e4c0001487800d089200041c4b30001487800b3
:103e5c00e089200051c6b30001487800f0892000a9
:103e6c0061c4b30001487800008a200071c4b3001b
:103e7c0001487800108a200081c6b3000148780000
:103e8c0001032000a0842000aff607000000e00032
:103e9c0003003200ccc2a800c0fe0700ccc2a900af
:103eac000080fa00000006003600fa000000eb006b
:103ebc00000f78003500070097000700c8c2a90062
:103ecc00ccc2a80037fd07004bfd0700a0892000dd
:103edc0011c4b30001487800b089200031c6b3008a
:103eec0001487800c089200021c6b3000148780041
:103efc00d089200041c4b30001487800e08920003b
:103f0c0051c6b30001487800f089200061c4b300a9
:103f1c0001487800008a200071c4b3000148780081
:103f2c00108a200081c6b3000148780001003700d8
:103f3c0000000000a7ff070044c8bf000004e00019
:103f4c00fbff3a009bff0700a2ff070000402d007b
:103f5c000103200041010700e04a290010079800e6
:103f6c009cff07001e009000c9fd070099ff070089
:103f7c0094ff0700ab00070096ff0700002021000c
:103f8c00a107200035010700eaff37000000fa0006
:103f9c004427ef001200200080072000a109200018
:103fac003374200080497800814978008249780078
:103fbc00103a8000000178000200a000600420008c
:103fcc007105200023742000804978008149780015
:103fdc008249780000000000103a80006100600007
:103fec000000e000fcff3a000080fa000000060030
:103ffc000000fa00103a8000000178000260a10075
:10400c006004200071052000237420008049780092
:10401c0081497800824978002135800000fe2f000c
:10402c0000806000e000b30020358800513680002d
:10403c0000fe2f00008060003000b3005036880076
:10404c0021368000f00f2e008080600000202100bf
:10405c00010070002036880051368000f00f2e00d1
:10406c0080806000005020000100700050368800f5
:10407c00103a8000000178000260a000600420006b
:10408c007105200023742000804978008149780054
:10409c00824978000080fa00000006000000fa0057
:1040ac000080eb0060198800c822ef00c9c2a8008c
:1040bc00c942a900c082a900c482a800c8c2a90034
:1040cc00c8e2a800ccc2a9008200a8009400a800f5
:1040dc008400a900200580007000b3002005880032
:1040ec000080fa00000006000000fa0010c0b300c7
:1040fc0044e8b7004b00070000e0230091042000c7
:10410c00d6000700204b2900eefc0700ccc2a9000a
:10411c000080fa00000006000000fa00dfff070034
:10412c00b3ff0700020007000080fa000000060041
:10413c000000fa000621ef0081088000f0fc2f003f
:10414c00008060000040a00080088800f0c32900b7
:10415c0060088800e0c42000100c8800e0c4200037
:10416c00000c8800210c800080ff2f000080600074
:10417c006000b300200c88008461a90011e1a80044
:10418c000080fa00000006000000fa004427ef004f
:10419c001200200080072000a109200033742000a9
:1041ac00804978008149780082497800103a800073
:1041bc00000178000200a0006004200071052000be
:1041cc002374200080497800814978008249780066
:1041dc0000000000103a8000610060000000e00068
:1041ec00fcff3a000080fa00000006000000fa0014
:1041fc00801f2100000c880010c0b30047e8b700f6
:10420c000080fa00000006000000fa008057200031
:10421c00000c880020c0b30047e8b7000080fa000b
:10422c00000006000000fa00e0c42000000c88002a
:0c423c004768ef000080fa000000060058
:020000040000fa
:104248004a0800005a0000000000000000080000b2
:10425800320000000200000018931d00932693000e
:1042680034933f009359930067939000939f930072
:10427800aa93ae0093b29300b693ba0093be93008c
:10428800c293c60093ca9300ce93d20093d69300ec
:10429800da93de0093e29300e69300004008000002
:1042a80006000000000000004608000002000000b0
:1042b80000000000320800000e00000000000000ae
:1042c800480800000200000000000000a4080000e8
:1042d8000200000000000000a60800000200000024
:0842e8000000000000000000ce
:020000040000fa
:1042f0000000fa00c422ef00cc22ef007001200081
:1043000000168800f07f2e00401688006820ef001d
:104310006a20ef00c622ef00ce22ef00c00021008d
:1043200060198800113a8000f00b200000816000c5
:10433000600420007105200023742000804978006b
:10434000814978008249780051368000f00f2e00b4
:1043500080806000007020000100700050368800ee
:10436000103a8000000178000260a0006004200084
:10437000710520002374200080497800814978006d
:10438000824978000080fa00000006000000fa0070
:1043900010c0b30044e8b700a04b29004cfc070054
:1043a00054ff0700a089200011c4b3000148780021
:1043b000b089200031c6b30001487800c0892000d0
:1043c00021c6b30001487800d089200041c4b30061
:1043d00001487800e089200051c6b3000148780008
:1043e000f089200061c4b30001487800008a2000f1
:1043f00071c4b30001487800108a200081c6b30060
:10440000014878000080fa00000006000000fa0071
:1044100041058000f08f2f00008060000080a00028
:104420004005880021068000f0f82f000080600021
:104430000040a000200688005105800080ff2f006a
:10444000008060000000a000500588004105800049
:10445000f0ff28000080600000c0a0004005880038
:084460000080fa0000000600d4
:020000040000fa
:10446800f03fb1000180b10006003500ee030900fd
:1044780000000000403fb1000180b100fbff3d009b
:104488001000b000203fb000020035000080090095
:08449800000000000000060016
:020000040000fa
:1044a0000000fa0092ff0700d8ff070096fd070002
:0844b0000080fa000000060084
:020000040000fa
:020000040001f9
:0457f8007f790000b5
:020000040000fa
:020000040001f9
:0457fc007f3f0000eb
:00000001FF
