:020000040000fa
:080000000002040000000000f2
:020000040000fa
:04000800ea02000008
:020000040000fa
:04000c00ea02000004
:020000040000fa
:04001000ea02000000
:020000040000fa
:04001400ea020000fc
:020000040000fa
:04001800ea020000f8
:020000040000fa
:04001c00ea020000f4
:020000040000fa
:04002000ea020000f0
:020000040000fa
:04002400ea020000ec
:020000040000fa
:04002800ea020000e8
:020000040000fa
:04002c00ea020000e4
:020000040000fa
:04003000ea020000e0
:020000040000fa
:04003400ea020000dc
:020000040000fa
:04003800ea020000d8
:020000040000fa
:04003c00ea020000d4
:020000040000fa
:04004000ea020000d0
:020000040000fa
:04004400ea020000cc
:020000040000fa
:04004800ea020000c8
:020000040000fa
:04004c00ea020000c4
:020000040000fa
:04005000ea020000c0
:020000040000fa
:04005400ea020000bc
:020000040000fa
:04005800d8020000ca
:020000040000fa
:04005c00ea020000b4
:020000040000fa
:04006000ea020000b0
:020000040000fa
:04006400ea020000ac
:020000040000fa
:04006800ea020000a8
:020000040000fa
:04006c00c8020000c6
:020000040000fa
:04007000ea020000a0
:020000040000fa
:04007400ea0200009c
:020000040000fa
:04007800ea02000098
:020000040000fa
:04007c00ea02000094
:020000040000fa
:04008000ea02000090
:020000040000fa
:04008400ea0200008c
:020000040000fa
:04008800ea02000088
:020000040000fa
:04008c00ea02000084
:020000040000fa
:04009000ea02000080
:020000040000fa
:04009400ea0200007c
:020000040000fa
:04009800ea02000078
:020000040000fa
:04009c00ea02000074
:020000040000fa
:0400a000ea02000070
:020000040000fa
:0400a400ea0200006c
:020000040000fa
:0400a800ea02000068
:020000040000fa
:0400ac00ea02000064
:020000040000fa
:0400b000ea02000060
:020000040000fa
:0400b400ea0200005c
:020000040000fa
:0400b800ea02000058
:020000040000fa
:0400bc00ea02000054
:020000040000fa
:0400c000ea02000050
:020000040000fa
:0400c400ea0200004c
:020000040000fa
:0400c800ea02000048
:020000040000fa
:0400cc00ea02000044
:020000040000fa
:0400d000ea02000040
:020000040000fa
:0400d400ea0200003c
:020000040000fa
:0400d800ea02000038
:020000040000fa
:0400dc00ea02000034
:020000040000fa
:0400e000ea02000030
:020000040000fa
:0400e400ea0200002c
:020000040000fa
:0400e800ea02000028
:020000040000fa
:0400ec00ea02000024
:020000040000fa
:0400f000ea02000020
:020000040000fa
:0400f400ea0200001c
:020000040000fa
:0400f800ea02000018
:020000040000fa
:0400fc00ea02000014
:020000040000fa
:04010000ea0200000f
:020000040000fa
:04010400ea0200000b
:020000040000fa
:04010800ea02000007
:020000040000fa
:04010c00ea02000003
:020000040000fa
:04011000ea020000ff
:020000040000fa
:04011400ea020000fb
:020000040000fa
:04011800ea020000f7
:020000040000fa
:04011c00ea020000f3
:020000040000fa
:04012000ea020000ef
:020000040000fa
:04012400ea020000eb
:020000040000fa
:04012800ea020000e7
:020000040000fa
:04012c00ea020000e3
:020000040000fa
:04013000ea020000df
:020000040000fa
:04013400ea020000db
:020000040000fa
:04013800ea020000d7
:020000040000fa
:04013c00ea020000d3
:020000040000fa
:04014000ea020000cf
:020000040000fa
:04014400ea020000cb
:020000040000fa
:04014800ea020000c7
:020000040000fa
:04020800ea02000006
:020000040000fa
:04020c00ea02000002
:020000040000fa
:04021000ea020000fe
:020000040000fa
:04021400ea020000fa
:020000040000fa
:04021800ea020000f6
:020000040000fa
:04021c00ea020000f2
:020000040000fa
:04022000ea020000ee
:020000040000fa
:04022400ea020000ea
:020000040000fa
:04022800ea020000e6
:020000040000fa
:04022c00ea020000e2
:020000040000fa
:04023000ea020000de
:020000040000fa
:04023400ea020000da
:020000040000fa
:04023800ea020000d6
:020000040000fa
:04023c00ea020000d2
:020000040000fa
:04024000ea020000ce
:020000040000fa
:04024400ea020000ca
:020000040000fa
:04024800ea020000c6
:020000040000fa
:04024c00ea020000c2
:020000040000fa
:04025000ea020000be
:020000040000fa
:04025400ea020000ba
:020000040000fa
:04025800d8020000c8
:020000040000fa
:04025c00ea020000b2
:020000040000fa
:04026000ea020000ae
:020000040000fa
:04026400ea020000aa
:020000040000fa
:04026800ea020000a6
:020000040000fa
:04026c00c8020000c4
:020000040000fa
:04027000ea0200009e
:020000040000fa
:04027400ea0200009a
:020000040000fa
:04027800ea02000096
:020000040000fa
:04027c00ea02000092
:020000040000fa
:04028000ea0200008e
:020000040000fa
:04028400ea0200008a
:020000040000fa
:04028800ea02000086
:020000040000fa
:04028c00ea02000082
:020000040000fa
:04029000ea0200007e
:020000040000fa
:04029400ea0200007a
:020000040000fa
:04029800ea02000076
:020000040000fa
:04029c00ea02000072
:020000040000fa
:0402a000ea0200006e
:020000040000fa
:0402a400ea0200006a
:020000040000fa
:0402a800ea02000066
:020000040000fa
:0402ac00ea02000062
:020000040000fa
:0402b000ea0200005e
:020000040000fa
:0402b400ea0200005a
:020000040000fa
:0402b800ea02000056
:020000040000fa
:0402bc00ea02000052
:020000040000fa
:0402c000ea0200004e
:020000040000fa
:0402c400ea0200004a
:020000040000fa
:0402c800ea02000046
:020000040000fa
:0402cc00ea02000042
:020000040000fa
:0402d000ea0200003e
:020000040000fa
:0402d400ea0200003a
:020000040000fa
:0402d800ea02000036
:020000040000fa
:0402dc00ea02000032
:020000040000fa
:0402e000ea0200002e
:020000040000fa
:0402e400ea0200002a
:020000040000fa
:0402e800ea02000026
:020000040000fa
:0402ec00ea02000022
:020000040000fa
:0402f000ea0200001e
:020000040000fa
:0402f400ea0200001a
:020000040000fa
:0402f800ea02000016
:020000040000fa
:0402fc00ea02000012
:020000040000fa
:04030000ea0200000d
:020000040000fa
:04030400ea02000009
:020000040000fa
:04030800ea02000005
:020000040000fa
:04030c00ea02000001
:020000040000fa
:04031000ea020000fd
:020000040000fa
:04031400ea020000f9
:020000040000fa
:04031800ea020000f5
:020000040000fa
:04031c00ea020000f1
:020000040000fa
:04032000ea020000ed
:020000040000fa
:04032400ea020000e9
:020000040000fa
:04032800ea020000e5
:020000040000fa
:04032c00ea020000e1
:020000040000fa
:04033000ea020000dd
:020000040000fa
:04033400ea020000d9
:020000040000fa
:04033800ea020000d5
:020000040000fa
:04033c00ea020000d1
:020000040000fa
:04034000ea020000cd
:020000040000fa
:04034400ea020000c9
:020000040000fa
:04034800ea020000c5
:020000040000fa
:10040000cf8020000e7f22000e0188000000000037
:10041000000020000000e000020032000001200087
:1004200020028800140007006c0007000000e000b4
:1004300003003a00a0602000010020000200370005
:100440000000200001002000810f70000100320038
:1004500014000700000020000000e000020032004d
:1004600000000200000000004c0502000000000037
:100470000040da000000fe004440a9000000200017
:100480000000e0000300320000002000a00188000e
:100490004440a800000006008a1f78008b1f7800e7
:1004a0000000060091018800800478000000eb0045
:1004b0001a003700e284440032a0b4009905ba0063
:1004c000e284440032a0b4009906ba00e2844400f9
:1004d00032a0b4000006eb00476fde00fd07b2005b
:1004e000636ce10003003a00ebff07000000eb0043
:1004f0000a003700606ce10004003a00005deb0088
:100500008b05e900fdff3e00040037006168e10053
:10051000010032000086eb000b00070019c7ba008b
:100520001905ba000e04e00003003a000a00e000da
:10053000e0ff3a0000000600fe07b2009e018800be
:100540008a047800f5ff3700395dba008b05e900b1
:100550000c003200295dba008b05e900080032006a
:100560000c00e00003003a00e284440032a0b40032
:10057000f5ff370019ddba008b05e900faff3a00f4
:100580008904e800e184440032a0b40000000600c1
:10059000801f78000000fa0010c0b30008e8b70020
:1005a0008620a9000080fa004f0078000040060075
:1005b000801f78000000fa008580a9000ac8bf00eb
:1005c0000080fb00201188000080fa004f007800b6
:1005d000004006000040da000000fe0000000500b8
:020000040000fa
:1005e0000000fa0020002000203a880012002000bd
:1005f00080072000a1092000337420008049780082
:100600008149780082497800103a80000001780022
:100610000200a00060042000710520002374200067
:100620008049780081497800824978000000000004
:10063000103a8000610060000000e000fcff3a001a
:100640000080fa00000006000000fa0007e2a9009e
:100650008620a9009620a80061058000f0f82f00f0
:1006600080806000000620000100700060058800a6
:10067000d00920002010880007e2a800000a20000e
:1006800001002000550107000080fa00000006006c
:100690000200fa0007e2a900000a20000100200081
:1006a0004e010700c922a900c902a900cd22a80055
:1006b0000000eb00000f780009003700cd02a80011
:1006c000000520000100200044010700cd02a90020
:1006d0000005200001002000400107001e0fe80077
:1006e0001e007800e80f5000f4ff3400c922a90072
:1006f000c902a900cd22a9000005200001002000a8
:1007000036010700cd02a8000005200001002000ee
:1007100032010700cd22a8000005200001002000c2
:100720002e010700c922a800c902a80007e2a800fc
:10073000000a200001002000280107000080fa00c4
:10074000000006000200fa000868ef000642a80058
:1007500000712200000f78000000000008c8bf00f0
:100760000004e00004003a001e0fe9001e007800bb
:100770000000e000f9ff3c001e0078000000e000ef
:1007800002003a00ccc2a800ffff37000080fa0048
:10079000000006000200fa000868ef000602a80048
:1007a00000712200000f78000000000008c8bf00a0
:1007b0000004e00004003a001e0fe9001e0078006b
:1007c0000000e000f9ff3c001e0078000000e0009f
:1007d00002003a00ccc2a800ffff37000080fa00f8
:1007e000000006000200fa003110800000fe2f0019
:1007f00000806000301088000868ef000662a800e2
:1008000000712200000f78000000000008c8bf003f
:100810000004e00004003a001e0fe9001e0078000a
:100820000000e000f9ff3c001e0078000000e0003e
:1008300002003a00ccc2a800ffff37000080fa0097
:10084000000006000400fa00204798000868ef0046
:100850002e4090000080fb001010880000712200e4
:10086000000f78000000000008c8bf000004e0008e
:1008700004003a001e0fe9001e0078000000e000ae
:10088000f9ff3c001e0078000000e00002003a0082
:10089000ccc2a800ffff37000080fa00000006006d
:1008a0000000fa00bbff070000c2b300e5ff07002d
:1008b0000040eb00e3ff07000040eb00e1ff070012
:1008c00080c0b300dfff07009eff0700000a200082
:1008d00001002000c10007000080fa0000000600af
:1008e0000000fa00c982a900c962a800113a80007c
:1008f000f00b2000008160006004200071052000e2
:10090000237420008049780081497800824978006a
:100910006136800000fe2f00008060003000b300d0
:1009200060368800103a8000000178000260a00064
:1009300060042000710520002374200080497800a5
:1009400081497800824978002002a90001118000c5
:1009500090ff2f00008060000011880020a2a900f5
:100960002062a900f00c20004011880023a2a800fa
:1009700023e2a9009580a8005105800080ff2f0088
:10098000008060000020a0005005880021e2a8003f
:100990002342a80000d22000010020008f000700a1
:1009a0000080fa00000006000200fa00004f780004
:1009b00078ff070000c2b300a2ff07001e407800c6
:1009c000a0ff070073ff070010c2b3009dff0700e0
:1009d0000080fa00000006000600fa0020079800d8
:1009e00080ff070001108000010f780006a2a90017
:1009f0000682a80000000000301080007000600037
:100a00000000e000fcff3a0076ff070001108000c4
:100a10001107980006a2a8000682a80000000000a6
:100a200030108000700060000000e000fcff3a0021
:100a30001e0090004800dd009e0070002e00900017
:100a4000010878000080fa00000006000400fa00a7
:100a5000004f7800110798004eff070000c2b30056
:100a600078ff07001e40780076ff070049ff070067
:100a700010c2b30073ff07001e009000d6ff0700ee
:100a800030ff0700000a200001002000530007008b
:100a90000080fa00000006000000fa00d0fe070007
:100aa0000600fc0011028000f141b2001102880032
:100ab000c8c2a900ccc2a90089ff0700f4fe070044
:100ac000000a20000100200044000700defe0700ad
:100ad00073ff0700eefe0700000a2000010020005f
:100ae0003e0007002180200050c0b300d7ff070060
:100af0004180200060c0b300d4ff07006180200067
:100b000070c0b300d1ff0700ccc2a80000a026002f
:100b10008101200031000700ccc2a90011408000f3
:100b200020408000808f50000d0036001140800072
:100b300030408000808f5000090036000000000027
:100b40001111800000202000008060000000e00003
:100b5000fbff3a0020c5b3000ae8b7001b003700ce
:100b60001140800020408000808f50000d00310037
:100b70002140800030408000808f50000b00360004
:100b800000000000111180000020200000806000a3
:100b90000000e000fbff3a0070c4b3000ae8b700b1
:100ba0000a003700000000000100370000000000cc
:100bb0001111800000202000008060000000e00093
:100bc000fbff3a0020c4b3000ae8b70000a02600eb
:0c0bd0008101200001000700beff37007b
:020000040000fa
:100bdc00f03fb1000180b10006003500ee030900c2
:100bec0000000000403fb1000180b100fbff3d0060
:100bfc001000b000203fb00002003500008009005a
:080c0c000000000000000600da
:020000040000fa
:100c1400000800000a000000000000000a080000ac
:100c240002000000020000006e000000000000004e
:020000040000fa
:020000040001f9
:0457f8007f790000b5
:020000040000fa
:020000040001f9
:0457fc007f3f0000eb
:00000001FF
