:020000040000fa
:080000000002040000000000f2
:020000040000fa
:0400080008030000e9
:020000040000fa
:04000c0008030000e5
:020000040000fa
:0400100008030000e1
:020000040000fa
:0400140008030000dd
:020000040000fa
:0400180008030000d9
:020000040000fa
:04001c0008030000d5
:020000040000fa
:0400200008030000d1
:020000040000fa
:0400240008030000cd
:020000040000fa
:0400280008030000c9
:020000040000fa
:04002c0008030000c5
:020000040000fa
:0400300008030000c1
:020000040000fa
:0400340008030000bd
:020000040000fa
:0400380008030000b9
:020000040000fa
:04003c0008030000b5
:020000040000fa
:0400400008030000b1
:020000040000fa
:0400440008030000ad
:020000040000fa
:0400480008030000a9
:020000040000fa
:04004c0008030000a5
:020000040000fa
:0400500008030000a1
:020000040000fa
:04005400080300009d
:020000040000fa
:040058000803000099
:020000040000fa
:04005c000803000095
:020000040000fa
:040060000803000091
:020000040000fa
:04006400080300008d
:020000040000fa
:040068000803000089
:020000040000fa
:04006c000803000085
:020000040000fa
:040070000803000081
:020000040000fa
:04007400c8020000be
:020000040000fa
:040078000803000079
:020000040000fa
:04007c000803000075
:020000040000fa
:040080000803000071
:020000040000fa
:04008400080300006d
:020000040000fa
:040088000803000069
:020000040000fa
:04008c000803000065
:020000040000fa
:040090000803000061
:020000040000fa
:04009400080300005d
:020000040000fa
:040098000803000059
:020000040000fa
:04009c000803000055
:020000040000fa
:0400a0000803000051
:020000040000fa
:0400a400080300004d
:020000040000fa
:0400a8000803000049
:020000040000fa
:0400ac000803000045
:020000040000fa
:0400b0000803000041
:020000040000fa
:0400b400080300003d
:020000040000fa
:0400b8000803000039
:020000040000fa
:0400bc000803000035
:020000040000fa
:0400c0000803000031
:020000040000fa
:0400c400080300002d
:020000040000fa
:0400c8000803000029
:020000040000fa
:0400cc000803000025
:020000040000fa
:0400d0000803000021
:020000040000fa
:0400d400080300001d
:020000040000fa
:0400d8000803000019
:020000040000fa
:0400dc000803000015
:020000040000fa
:0400e0000803000011
:020000040000fa
:0400e400080300000d
:020000040000fa
:0400e8000803000009
:020000040000fa
:0400ec000803000005
:020000040000fa
:0400f0000803000001
:020000040000fa
:0400f40008030000fd
:020000040000fa
:0400f80008030000f9
:020000040000fa
:0400fc0008030000f5
:020000040000fa
:0401000008030000f0
:020000040000fa
:0401040008030000ec
:020000040000fa
:0401080008030000e8
:020000040000fa
:04010c0008030000e4
:020000040000fa
:0401100008030000e0
:020000040000fa
:0401140008030000dc
:020000040000fa
:0401180008030000d8
:020000040000fa
:04011c0008030000d4
:020000040000fa
:0401200008030000d0
:020000040000fa
:0401240008030000cc
:020000040000fa
:0401280008030000c8
:020000040000fa
:04012c0008030000c4
:020000040000fa
:0401300008030000c0
:020000040000fa
:0401340008030000bc
:020000040000fa
:0401380008030000b8
:020000040000fa
:04013c0008030000b4
:020000040000fa
:0401400008030000b0
:020000040000fa
:0401440008030000ac
:020000040000fa
:0401480008030000a8
:020000040000fa
:0402080008030000e7
:020000040000fa
:04020c0008030000e3
:020000040000fa
:0402100008030000df
:020000040000fa
:0402140008030000db
:020000040000fa
:0402180008030000d7
:020000040000fa
:04021c0008030000d3
:020000040000fa
:0402200008030000cf
:020000040000fa
:0402240008030000cb
:020000040000fa
:0402280008030000c7
:020000040000fa
:04022c0008030000c3
:020000040000fa
:0402300008030000bf
:020000040000fa
:0402340008030000bb
:020000040000fa
:0402380008030000b7
:020000040000fa
:04023c0008030000b3
:020000040000fa
:0402400008030000af
:020000040000fa
:0402440008030000ab
:020000040000fa
:0402480008030000a7
:020000040000fa
:04024c0008030000a3
:020000040000fa
:04025000080300009f
:020000040000fa
:04025400080300009b
:020000040000fa
:040258000803000097
:020000040000fa
:04025c000803000093
:020000040000fa
:04026000080300008f
:020000040000fa
:04026400080300008b
:020000040000fa
:040268000803000087
:020000040000fa
:04026c000803000083
:020000040000fa
:04027000080300007f
:020000040000fa
:04027400c8020000bc
:020000040000fa
:040278000803000077
:020000040000fa
:04027c000803000073
:020000040000fa
:04028000080300006f
:020000040000fa
:04028400080300006b
:020000040000fa
:040288000803000067
:020000040000fa
:04028c000803000063
:020000040000fa
:04029000080300005f
:020000040000fa
:04029400080300005b
:020000040000fa
:040298000803000057
:020000040000fa
:04029c000803000053
:020000040000fa
:0402a000080300004f
:020000040000fa
:0402a400080300004b
:020000040000fa
:0402a8000803000047
:020000040000fa
:0402ac000803000043
:020000040000fa
:0402b000080300003f
:020000040000fa
:0402b400080300003b
:020000040000fa
:0402b8000803000037
:020000040000fa
:0402bc000803000033
:020000040000fa
:0402c000080300002f
:020000040000fa
:0402c400080300002b
:020000040000fa
:0402c8000803000027
:020000040000fa
:0402cc000803000023
:020000040000fa
:0402d000080300001f
:020000040000fa
:0402d400080300001b
:020000040000fa
:0402d8000803000017
:020000040000fa
:0402dc000803000013
:020000040000fa
:0402e000080300000f
:020000040000fa
:0402e400080300000b
:020000040000fa
:0402e8000803000007
:020000040000fa
:0402ec000803000003
:020000040000fa
:0402f00008030000ff
:020000040000fa
:0402f40008030000fb
:020000040000fa
:0402f80008030000f7
:020000040000fa
:0402fc0008030000f3
:020000040000fa
:0403000008030000ee
:020000040000fa
:0403040008030000ea
:020000040000fa
:0403080008030000e6
:020000040000fa
:04030c0008030000e2
:020000040000fa
:0403100008030000de
:020000040000fa
:0403140008030000da
:020000040000fa
:0403180008030000d6
:020000040000fa
:04031c0008030000d2
:020000040000fa
:0403200008030000ce
:020000040000fa
:0403240008030000ca
:020000040000fa
:0403280008030000c6
:020000040000fa
:04032c0008030000c2
:020000040000fa
:0403300008030000be
:020000040000fa
:0403340008030000ba
:020000040000fa
:0403380008030000b6
:020000040000fa
:04033c0008030000b2
:020000040000fa
:0403400008030000ae
:020000040000fa
:0403440008030000aa
:020000040000fa
:0403480008030000a6
:020000040000fa
:100400004f8020000e7f22000e01880000000000b7
:10041000000020000000e000020032000001200087
:1004200020028800140007007b0007000000e000a5
:1004300003003a0060322000010020000200370073
:100440000000200001002000810f70000100320038
:1004500014000700000020000000e000020032004d
:1004600000000200000000000e0302000000000077
:100470000040da000000fe004440a9000000200017
:100480000000e0000300320000002000a00188000e
:100490004440a800000006008a1f78008b1f7800e7
:1004a0000000060091018800800478000000eb0045
:1004b0001a003700e284440032a0b4009905ba0063
:1004c000e284440032a0b4009906ba00e2844400f9
:1004d00032a0b4000006eb00476fde00fd07b2005b
:1004e000636ce10003003a00ebff07000000eb0043
:1004f0000a003700606ce10004003a00005deb0088
:100500008b05e900fdff3e00040037006168e10053
:10051000010032000086eb000b00070019c7ba008b
:100520001905ba000e04e00003003a000a00e000da
:10053000e0ff3a0000000600fe07b2009e018800be
:100540008a047800f5ff3700395dba008b05e900b1
:100550000c003200295dba008b05e900080032006a
:100560000c00e00003003a00e284440032a0b40032
:10057000f5ff370019ddba008b05e900faff3a00f4
:100580008904e800e184440032a0b40000000600c1
:10059000809fbe003400f80000002000a001880009
:1005a0000000fa00601680004600de006140600036
:1005b00000c0ea00614060000080fb006100600054
:1005c0004600dd00611680000160a100010070009e
:1005d000601688000040800011408000008070009c
:1005e00000f0a7000000ea000000e9004f00de0074
:1005f0008000eb0000408800114088008660a90060
:100600000080fa003400f9004f00be0000400600f0
:0c0610000040da000000fe0000000500c1
:020000040000fa
:10061c000000fa00c8c2a900c8e2a800ccc2a80019
:10062c006ae0a80062e0a8009660a800610580005e
:10063c00000027000100700060058800ffff3700f4
:020000040000fa
:10064c00000800000400000002000000010000008f
:08065c00000000000000000096
:00000001FF
